{
  "_format": "hh-sol-artifact-1",
  "contractName": "SemaphoreIdentity",
  "sourceName": "contracts/SemaphoreIdentity.sol",
  "abi": [
    {
      "inputs": [
        {
          "internalType": "contract ISemaphoreVerifier",
          "name": "_verifier",
          "type": "address"
        }
      ],
      "stateMutability": "nonpayable",
      "type": "constructor"
    },
    {
      "inputs": [],
      "name": "Semaphore__CallerIsNotTheGroupAdmin",
      "type": "error"
    },
    {
      "inputs": [],
      "name": "Semaphore__GroupAlreadyExists",
      "type": "error"
    },
    {
      "inputs": [],
      "name": "Semaphore__GroupDoesNotExist",
      "type": "error"
    },
    {
      "inputs": [],
      "name": "Semaphore__MerkleTreeDepthIsNotSupported",
      "type": "error"
    },
    {
      "inputs": [],
      "name": "Semaphore__MerkleTreeRootIsExpired",
      "type": "error"
    },
    {
      "inputs": [],
      "name": "Semaphore__MerkleTreeRootIsNotPartOfTheGroup",
      "type": "error"
    },
    {
      "inputs": [],
      "name": "Semaphore__YouAreUsingTheSameNillifierTwice",
      "type": "error"
    },
    {
      "anonymous": false,
      "inputs": [
        {
          "indexed": true,
          "internalType": "uint256",
          "name": "groupId",
          "type": "uint256"
        },
        {
          "indexed": true,
          "internalType": "address",
          "name": "oldAdmin",
          "type": "address"
        },
        {
          "indexed": true,
          "internalType": "address",
          "name": "newAdmin",
          "type": "address"
        }
      ],
      "name": "GroupAdminUpdated",
      "type": "event"
    },
    {
      "anonymous": false,
      "inputs": [
        {
          "indexed": true,
          "internalType": "uint256",
          "name": "groupId",
          "type": "uint256"
        },
        {
          "indexed": false,
          "internalType": "uint256",
          "name": "merkleTreeDepth",
          "type": "uint256"
        },
        {
          "indexed": false,
          "internalType": "uint256",
          "name": "zeroValue",
          "type": "uint256"
        }
      ],
      "name": "GroupCreated",
      "type": "event"
    },
    {
      "anonymous": false,
      "inputs": [
        {
          "indexed": true,
          "internalType": "uint256",
          "name": "groupId",
          "type": "uint256"
        },
        {
          "indexed": false,
          "internalType": "uint256",
          "name": "oldMerkleTreeDuration",
          "type": "uint256"
        },
        {
          "indexed": false,
          "internalType": "uint256",
          "name": "newMerkleTreeDuration",
          "type": "uint256"
        }
      ],
      "name": "GroupMerkleTreeDurationUpdated",
      "type": "event"
    },
    {
      "anonymous": false,
      "inputs": [
        {
          "indexed": true,
          "internalType": "uint256",
          "name": "groupId",
          "type": "uint256"
        },
        {
          "indexed": false,
          "internalType": "uint256",
          "name": "index",
          "type": "uint256"
        },
        {
          "indexed": false,
          "internalType": "uint256",
          "name": "identityCommitment",
          "type": "uint256"
        },
        {
          "indexed": false,
          "internalType": "uint256",
          "name": "merkleTreeRoot",
          "type": "uint256"
        }
      ],
      "name": "MemberAdded",
      "type": "event"
    },
    {
      "anonymous": false,
      "inputs": [
        {
          "indexed": true,
          "internalType": "uint256",
          "name": "groupId",
          "type": "uint256"
        },
        {
          "indexed": false,
          "internalType": "uint256",
          "name": "index",
          "type": "uint256"
        },
        {
          "indexed": false,
          "internalType": "uint256",
          "name": "identityCommitment",
          "type": "uint256"
        },
        {
          "indexed": false,
          "internalType": "uint256",
          "name": "merkleTreeRoot",
          "type": "uint256"
        }
      ],
      "name": "MemberRemoved",
      "type": "event"
    },
    {
      "anonymous": false,
      "inputs": [
        {
          "indexed": true,
          "internalType": "uint256",
          "name": "groupId",
          "type": "uint256"
        },
        {
          "indexed": false,
          "internalType": "uint256",
          "name": "index",
          "type": "uint256"
        },
        {
          "indexed": false,
          "internalType": "uint256",
          "name": "identityCommitment",
          "type": "uint256"
        },
        {
          "indexed": false,
          "internalType": "uint256",
          "name": "newIdentityCommitment",
          "type": "uint256"
        },
        {
          "indexed": false,
          "internalType": "uint256",
          "name": "merkleTreeRoot",
          "type": "uint256"
        }
      ],
      "name": "MemberUpdated",
      "type": "event"
    },
    {
      "anonymous": false,
      "inputs": [
        {
          "indexed": true,
          "internalType": "uint256",
          "name": "groupId",
          "type": "uint256"
        },
        {
          "indexed": true,
          "internalType": "uint256",
          "name": "merkleTreeRoot",
          "type": "uint256"
        },
        {
          "indexed": true,
          "internalType": "uint256",
          "name": "externalNullifier",
          "type": "uint256"
        },
        {
          "indexed": false,
          "internalType": "uint256",
          "name": "nullifierHash",
          "type": "uint256"
        },
        {
          "indexed": false,
          "internalType": "uint256",
          "name": "signal",
          "type": "uint256"
        }
      ],
      "name": "ProofVerified",
      "type": "event"
    },
    {
      "inputs": [
        {
          "internalType": "uint256",
          "name": "groupId",
          "type": "uint256"
        },
        {
          "internalType": "uint256",
          "name": "identityCommitment",
          "type": "uint256"
        }
      ],
      "name": "addMember",
      "outputs": [],
      "stateMutability": "nonpayable",
      "type": "function"
    },
    {
      "inputs": [
        {
          "internalType": "uint256",
          "name": "groupId",
          "type": "uint256"
        },
        {
          "internalType": "uint256[]",
          "name": "identityCommitments",
          "type": "uint256[]"
        }
      ],
      "name": "addMembers",
      "outputs": [],
      "stateMutability": "nonpayable",
      "type": "function"
    },
    {
      "inputs": [
        {
          "internalType": "uint256",
          "name": "groupId",
          "type": "uint256"
        },
        {
          "internalType": "uint256",
          "name": "merkleTreeDepth",
          "type": "uint256"
        },
        {
          "internalType": "address",
          "name": "admin",
          "type": "address"
        },
        {
          "internalType": "uint256",
          "name": "merkleTreeDuration",
          "type": "uint256"
        }
      ],
      "name": "createGroup",
      "outputs": [],
      "stateMutability": "nonpayable",
      "type": "function"
    },
    {
      "inputs": [
        {
          "internalType": "uint256",
          "name": "groupId",
          "type": "uint256"
        },
        {
          "internalType": "uint256",
          "name": "merkleTreeDepth",
          "type": "uint256"
        },
        {
          "internalType": "address",
          "name": "admin",
          "type": "address"
        }
      ],
      "name": "createGroup",
      "outputs": [],
      "stateMutability": "nonpayable",
      "type": "function"
    },
    {
      "inputs": [
        {
          "internalType": "uint256",
          "name": "groupId",
          "type": "uint256"
        }
      ],
      "name": "getMerkleTreeDepth",
      "outputs": [
        {
          "internalType": "uint256",
          "name": "",
          "type": "uint256"
        }
      ],
      "stateMutability": "view",
      "type": "function"
    },
    {
      "inputs": [
        {
          "internalType": "uint256",
          "name": "groupId",
          "type": "uint256"
        }
      ],
      "name": "getMerkleTreeRoot",
      "outputs": [
        {
          "internalType": "uint256",
          "name": "",
          "type": "uint256"
        }
      ],
      "stateMutability": "view",
      "type": "function"
    },
    {
      "inputs": [
        {
          "internalType": "uint256",
          "name": "groupId",
          "type": "uint256"
        }
      ],
      "name": "getNumberOfMerkleTreeLeaves",
      "outputs": [
        {
          "internalType": "uint256",
          "name": "",
          "type": "uint256"
        }
      ],
      "stateMutability": "view",
      "type": "function"
    },
    {
      "inputs": [
        {
          "internalType": "uint256",
          "name": "",
          "type": "uint256"
        }
      ],
      "name": "groups",
      "outputs": [
        {
          "internalType": "address",
          "name": "admin",
          "type": "address"
        },
        {
          "internalType": "uint256",
          "name": "merkleTreeDuration",
          "type": "uint256"
        }
      ],
      "stateMutability": "view",
      "type": "function"
    },
    {
      "inputs": [
        {
          "internalType": "uint256",
          "name": "groupId",
          "type": "uint256"
        },
        {
          "internalType": "uint256",
          "name": "identityCommitment",
          "type": "uint256"
        },
        {
          "internalType": "uint256[]",
          "name": "proofSiblings",
          "type": "uint256[]"
        },
        {
          "internalType": "uint8[]",
          "name": "proofPathIndices",
          "type": "uint8[]"
        }
      ],
      "name": "removeMember",
      "outputs": [],
      "stateMutability": "nonpayable",
      "type": "function"
    },
    {
      "inputs": [
        {
          "internalType": "uint256",
          "name": "groupId",
          "type": "uint256"
        },
        {
          "internalType": "address",
          "name": "newAdmin",
          "type": "address"
        }
      ],
      "name": "updateGroupAdmin",
      "outputs": [],
      "stateMutability": "nonpayable",
      "type": "function"
    },
    {
      "inputs": [
        {
          "internalType": "uint256",
          "name": "groupId",
          "type": "uint256"
        },
        {
          "internalType": "uint256",
          "name": "newMerkleTreeDuration",
          "type": "uint256"
        }
      ],
      "name": "updateGroupMerkleTreeDuration",
      "outputs": [],
      "stateMutability": "nonpayable",
      "type": "function"
    },
    {
      "inputs": [
        {
          "internalType": "uint256",
          "name": "groupId",
          "type": "uint256"
        },
        {
          "internalType": "uint256",
          "name": "identityCommitment",
          "type": "uint256"
        },
        {
          "internalType": "uint256",
          "name": "newIdentityCommitment",
          "type": "uint256"
        },
        {
          "internalType": "uint256[]",
          "name": "proofSiblings",
          "type": "uint256[]"
        },
        {
          "internalType": "uint8[]",
          "name": "proofPathIndices",
          "type": "uint8[]"
        }
      ],
      "name": "updateMember",
      "outputs": [],
      "stateMutability": "nonpayable",
      "type": "function"
    },
    {
      "inputs": [],
      "name": "verifier",
      "outputs": [
        {
          "internalType": "contract ISemaphoreVerifier",
          "name": "",
          "type": "address"
        }
      ],
      "stateMutability": "view",
      "type": "function"
    },
    {
      "inputs": [
        {
          "internalType": "uint256",
          "name": "groupId",
          "type": "uint256"
        },
        {
          "internalType": "uint256",
          "name": "merkleTreeRoot",
          "type": "uint256"
        },
        {
          "internalType": "uint256",
          "name": "signal",
          "type": "uint256"
        },
        {
          "internalType": "uint256",
          "name": "nullifierHash",
          "type": "uint256"
        },
        {
          "internalType": "uint256",
          "name": "externalNullifier",
          "type": "uint256"
        },
        {
          "internalType": "uint256[8]",
          "name": "proof",
          "type": "uint256[8]"
        }
      ],
      "name": "verifyProof",
      "outputs": [],
      "stateMutability": "nonpayable",
      "type": "function"
    }
  ],
  "bytecode": "0x60806040523480156200001157600080fd5b506040516200209e3803806200209e833981810160405281019062000037919062000096565b80600160006101000a81548173ffffffffffffffffffffffffffffffffffffffff021916908373ffffffffffffffffffffffffffffffffffffffff1602179055505062000124565b60008151905062000090816200010a565b92915050565b600060208284031215620000a957600080fd5b6000620000b9848285016200007f565b91505092915050565b6000620000cf82620000ea565b9050919050565b6000620000e382620000c2565b9050919050565b600073ffffffffffffffffffffffffffffffffffffffff82169050919050565b6200011581620000d6565b81146200012157600080fd5b50565b611f6a80620001346000396000f3fe608060405234801561001057600080fd5b50600436106100ea5760003560e01c80636389e1071161008c5780639c112141116100665780639c11214114610246578063dabc4d5114610262578063ec45622a14610292578063fcf0b6ec146102ae576100ea565b80636389e107146101c957806365e54f83146101f957806396324bd414610215576100ea565b80633bc778e3116100c85780633bc778e31461014557806343989f8514610161578063568ee8261461017d578063638480be14610199576100ea565b806304245371146100ef5780631783efc31461010b5780632b7ac3f314610127575b600080fd5b610109600480360381019061010491906115a9565b6102ca565b005b61012560048036038101906101209190611601565b610410565b005b61012f6104fc565b60405161013c9190611a78565b60405180910390f35b61015f600480360381019061015a919061183a565b610522565b005b61017b600480360381019061017691906116ef565b610723565b005b6101976004803603810190610192919061156d565b610817565b005b6101b360048036038101906101ae9190611544565b610976565b6040516101c09190611baf565b60405180910390f35b6101e360048036038101906101de9190611544565b610995565b6040516101f09190611baf565b60405180910390f35b610213600480360381019061020e919061168c565b6109b4565b005b61022f600480360381019061022a9190611544565b610ad8565b60405161023d929190611a4f565b60405180910390f35b610260600480360381019061025b919061163d565b610b1c565b005b61027c60048036038101906102779190611544565b610c41565b6040516102899190611baf565b60405180910390f35b6102ac60048036038101906102a7919061178a565b610c60565b005b6102c860048036038101906102c39190611601565b610d56565b005b826102d3610e6f565b73ffffffffffffffffffffffffffffffffffffffff166002600083815260200190815260200160002060000160009054906101000a900473ffffffffffffffffffffffffffffffffffffffff1673ffffffffffffffffffffffffffffffffffffffff161461036d576040517fbb9bf27800000000000000000000000000000000000000000000000000000000815260040160405180910390fd5b60005b838390508110156103cf576103c4858585848181106103b8577f4e487b7100000000000000000000000000000000000000000000000000000000600052603260045260246000fd5b90506020020135610e77565b806001019050610370565b5060006103db85610c41565b905042600260008781526020019081526020016000206002016000838152602001908152602001600020819055505050505050565b81610419610e6f565b73ffffffffffffffffffffffffffffffffffffffff166002600083815260200190815260200160002060000160009054906101000a900473ffffffffffffffffffffffffffffffffffffffff1673ffffffffffffffffffffffffffffffffffffffff16146104b3576040517fbb9bf27800000000000000000000000000000000000000000000000000000000815260040160405180910390fd5b6104bd8383610e77565b60006104c884610c41565b9050426002600086815260200190815260200160002060020160008381526020019081526020016000208190555050505050565b600160009054906101000a900473ffffffffffffffffffffffffffffffffffffffff1681565b600061052d87610995565b9050600081141561056a576040517f029f057900000000000000000000000000000000000000000000000000000000815260040160405180910390fd5b600061057588610c41565b9050808714610648576000600260008a815260200190815260200160002060020160008981526020019081526020016000205490506000600260008b81526020019081526020016000206001015490506000821415610600576040517f4d32958600000000000000000000000000000000000000000000000000000000815260040160405180910390fd5b808261060c9190611d22565b421115610645576040517f9581a99000000000000000000000000000000000000000000000000000000000815260040160405180910390fd5b50505b600160009054906101000a900473ffffffffffffffffffffffffffffffffffffffff1673ffffffffffffffffffffffffffffffffffffffff16639aca8f2a8887898888886040518763ffffffff1660e01b81526004016106ad96959493929190611c6f565b60006040518083038186803b1580156106c557600080fd5b505afa1580156106d9573d6000803e3d6000fd5b505050508487897f48950129900df26c2140187532df49c8af343c3daf74f1e99e562e1b2be07adc878a604051610711929190611bca565b60405180910390a45050505050505050565b8561072c610e6f565b73ffffffffffffffffffffffffffffffffffffffff166002600083815260200190815260200160002060000160009054906101000a900473ffffffffffffffffffffffffffffffffffffffff1673ffffffffffffffffffffffffffffffffffffffff16146107c6576040517fbb9bf27800000000000000000000000000000000000000000000000000000000815260040160405180910390fd5b6107d4878787878787610f9e565b60006107df88610c41565b905042600260008a81526020019081526020016000206002016000838152602001908152602001600020819055505050505050505050565b81610820610e6f565b73ffffffffffffffffffffffffffffffffffffffff166002600083815260200190815260200160002060000160009054906101000a900473ffffffffffffffffffffffffffffffffffffffff1673ffffffffffffffffffffffffffffffffffffffff16146108ba576040517fbb9bf27800000000000000000000000000000000000000000000000000000000815260040160405180910390fd5b816002600085815260200190815260200160002060000160006101000a81548173ffffffffffffffffffffffffffffffffffffffff021916908373ffffffffffffffffffffffffffffffffffffffff1602179055508173ffffffffffffffffffffffffffffffffffffffff1661092e610e6f565b73ffffffffffffffffffffffffffffffffffffffff16847f0ba83579a0e79193ef649b9f5a8759d35af086ba62a3e207b52e4a8ae30d49e360405160405180910390a4505050565b6000806000838152602001908152602001600020600201549050919050565b6000806000838152602001908152602001600020600001549050919050565b8260108110806109c45750602081115b156109fb576040517fecf64f1200000000000000000000000000000000000000000000000000000000815260040160405180910390fd5b610a0585856110c6565b826002600087815260200190815260200160002060000160006101000a81548173ffffffffffffffffffffffffffffffffffffffff021916908373ffffffffffffffffffffffffffffffffffffffff1602179055508160026000878152602001908152602001600020600101819055508273ffffffffffffffffffffffffffffffffffffffff16600073ffffffffffffffffffffffffffffffffffffffff16867f0ba83579a0e79193ef649b9f5a8759d35af086ba62a3e207b52e4a8ae30d49e360405160405180910390a45050505050565b60026020528060005260406000206000915090508060000160009054906101000a900473ffffffffffffffffffffffffffffffffffffffff16908060010154905082565b816010811080610b2c5750602081115b15610b63576040517fecf64f1200000000000000000000000000000000000000000000000000000000815260040160405180910390fd5b610b6d84846110c6565b816002600086815260200190815260200160002060000160006101000a81548173ffffffffffffffffffffffffffffffffffffffff021916908373ffffffffffffffffffffffffffffffffffffffff160217905550610e1060026000868152602001908152602001600020600101819055508173ffffffffffffffffffffffffffffffffffffffff16600073ffffffffffffffffffffffffffffffffffffffff16857f0ba83579a0e79193ef649b9f5a8759d35af086ba62a3e207b52e4a8ae30d49e360405160405180910390a450505050565b6000806000838152602001908152602001600020600101549050919050565b86610c69610e6f565b73ffffffffffffffffffffffffffffffffffffffff166002600083815260200190815260200160002060000160009054906101000a900473ffffffffffffffffffffffffffffffffffffffff1673ffffffffffffffffffffffffffffffffffffffff1614610d03576040517fbb9bf27800000000000000000000000000000000000000000000000000000000815260040160405180910390fd5b610d12888888888888886111f7565b6000610d1d89610c41565b905042600260008b8152602001908152602001600020600201600083815260200190815260200160002081905550505050505050505050565b81610d5f610e6f565b73ffffffffffffffffffffffffffffffffffffffff166002600083815260200190815260200160002060000160009054906101000a900473ffffffffffffffffffffffffffffffffffffffff1673ffffffffffffffffffffffffffffffffffffffff1614610df9576040517fbb9bf27800000000000000000000000000000000000000000000000000000000815260040160405180910390fd5b600060026000858152602001908152602001600020600101549050826002600086815260200190815260200160002060010181905550837f264b2a8f6763c084235fe832ba903482b2ef1a521336881fc75b987c2dfd29c58285604051610e61929190611bca565b60405180910390a250505050565b600033905090565b6000610e8283610995565b1415610eba576040517f029f057900000000000000000000000000000000000000000000000000000000815260040160405180910390fd5b60008083815260200190815260200160002073__$0c6eb7207c37accf1552a1c47686411ac0$__63168703fa9091836040518363ffffffff1660e01b8152600401610f06929190611a93565b60006040518083038186803b158015610f1e57600080fd5b505af4158015610f32573d6000803e3d6000fd5b505050506000610f4183610c41565b905060006001610f5085610976565b610f5a9190611dd2565b9050837f19239b3f93cd10558aaf11423af70c77763bf54f52bcc75bfa74d4d13548cde9828585604051610f9093929190611bf3565b60405180910390a250505050565b6000610fa987610995565b1415610fe1576040517f029f057900000000000000000000000000000000000000000000000000000000815260040160405180910390fd5b60008087815260200190815260200160002073__$0c6eb7207c37accf1552a1c47686411ac0$__630629596f909187878787876040518763ffffffff1660e01b815260040161103596959493929190611abc565b60006040518083038186803b15801561104d57600080fd5b505af4158015611061573d6000803e3d6000fd5b50505050600061107087610c41565b9050600061107e8484611324565b9050877f3108849c053c77b8073a11256dffb5ffd5b55e93e105a355e1c9061db890d8718289856040516110b493929190611bf3565b60405180910390a25050505050505050565b60006110d183610995565b14611108576040517f8121725b00000000000000000000000000000000000000000000000000000000815260040160405180910390fd5b600060088360405160200161111d9190611a34565b6040516020818303038152906040528051906020012060001c901c905060008084815260200190815260200160002073__$0c6eb7207c37accf1552a1c47686411ac0$__631095fbb4909184846040518463ffffffff1660e01b815260040161118893929190611b13565b60006040518083038186803b1580156111a057600080fd5b505af41580156111b4573d6000803e3d6000fd5b50505050827f0d000126c26c1bbe400fd2332187f75d58b69306f9ec47b408686189d3a0083383836040516111ea929190611bca565b60405180910390a2505050565b600061120288610995565b141561123a576040517f029f057900000000000000000000000000000000000000000000000000000000815260040160405180910390fd5b60008088815260200190815260200160002073__$0c6eb7207c37accf1552a1c47686411ac0$__63a547882790918888888888886040518863ffffffff1660e01b81526004016112909796959493929190611b4a565b60006040518083038186803b1580156112a857600080fd5b505af41580156112bc573d6000803e3d6000fd5b5050505060006112cb88610c41565b905060006112d98484611324565b9050887fea3588e4a2a0c93d6a0e69dfeaf7496f43ccccf02ad9ce0a5b7627cbca4b61b1828a8a866040516113119493929190611c2a565b60405180910390a2505050505050505050565b6000806000905060008484905090505b60008160ff1611156114485760008211806113af57506000858560018461135b9190611e06565b60ff16818110611394577f4e487b7100000000000000000000000000000000000000000000000000000000600052603260045260246000fd5b90506020020160208101906113a991906118c4565b60ff1614155b1561143c576002826113c19190611d78565b9150600185856001846113d49190611e06565b60ff1681811061140d577f4e487b7100000000000000000000000000000000000000000000000000000000600052603260045260246000fd5b905060200201602081019061142291906118c4565b60ff16141561143b576001826114389190611d22565b91505b5b80600190039050611334565b508091505092915050565b60008135905061146281611eef565b92915050565b60008190508260206008028201111561148057600080fd5b92915050565b60008083601f84011261149857600080fd5b8235905067ffffffffffffffff8111156114b157600080fd5b6020830191508360208202830111156114c957600080fd5b9250929050565b60008083601f8401126114e257600080fd5b8235905067ffffffffffffffff8111156114fb57600080fd5b60208301915083602082028301111561151357600080fd5b9250929050565b60008135905061152981611f06565b92915050565b60008135905061153e81611f1d565b92915050565b60006020828403121561155657600080fd5b60006115648482850161151a565b91505092915050565b6000806040838503121561158057600080fd5b600061158e8582860161151a565b925050602061159f85828601611453565b9150509250929050565b6000806000604084860312156115be57600080fd5b60006115cc8682870161151a565b935050602084013567ffffffffffffffff8111156115e957600080fd5b6115f586828701611486565b92509250509250925092565b6000806040838503121561161457600080fd5b60006116228582860161151a565b92505060206116338582860161151a565b9150509250929050565b60008060006060848603121561165257600080fd5b60006116608682870161151a565b93505060206116718682870161151a565b925050604061168286828701611453565b9150509250925092565b600080600080608085870312156116a257600080fd5b60006116b08782880161151a565b94505060206116c18782880161151a565b93505060406116d287828801611453565b92505060606116e38782880161151a565b91505092959194509250565b6000806000806000806080878903121561170857600080fd5b600061171689828a0161151a565b965050602061172789828a0161151a565b955050604087013567ffffffffffffffff81111561174457600080fd5b61175089828a01611486565b9450945050606087013567ffffffffffffffff81111561176f57600080fd5b61177b89828a016114d0565b92509250509295509295509295565b600080600080600080600060a0888a0312156117a557600080fd5b60006117b38a828b0161151a565b97505060206117c48a828b0161151a565b96505060406117d58a828b0161151a565b955050606088013567ffffffffffffffff8111156117f257600080fd5b6117fe8a828b01611486565b9450945050608088013567ffffffffffffffff81111561181d57600080fd5b6118298a828b016114d0565b925092505092959891949750929550565b6000806000806000806101a0878903121561185457600080fd5b600061186289828a0161151a565b965050602061187389828a0161151a565b955050604061188489828a0161151a565b945050606061189589828a0161151a565b93505060806118a689828a0161151a565b92505060a06118b789828a01611468565b9150509295509295509295565b6000602082840312156118d657600080fd5b60006118e48482850161152f565b91505092915050565b60006118f98383611a25565b60208301905092915050565b61190e81611e3a565b82525050565b6119216101008383611ea7565b5050565b60006119318385611ce9565b93507f07ffffffffffffffffffffffffffffffffffffffffffffffffffffffffffffff83111561196057600080fd5b602083029250611971838584611ea7565b82840190509392505050565b60006119898385611cfa565b935061199482611cd2565b8060005b858110156119cd576119aa8284611d0b565b6119b488826118ed565b97506119bf83611cdc565b925050600181019050611998565b5085925050509392505050565b6119e381611e83565b82525050565b8082525050565b6119f981611e6c565b82525050565b611a0881611e6c565b82525050565b611a1f611a1a82611e6c565b611eb6565b82525050565b611a2e81611e76565b82525050565b6000611a408284611a0e565b60208201915081905092915050565b6000604082019050611a646000830185611905565b611a7160208301846119f0565b9392505050565b6000602082019050611a8d60008301846119da565b92915050565b6000604082019050611aa860008301856119e9565b611ab560208301846119ff565b9392505050565b6000608082019050611ad160008301896119e9565b611ade60208301886119ff565b8181036040830152611af1818688611925565b90508181036060830152611b0681848661197d565b9050979650505050505050565b6000606082019050611b2860008301866119e9565b611b3560208301856119ff565b611b4260408301846119ff565b949350505050565b600060a082019050611b5f600083018a6119e9565b611b6c60208301896119ff565b611b7960408301886119ff565b8181036060830152611b8c818688611925565b90508181036080830152611ba181848661197d565b905098975050505050505050565b6000602082019050611bc460008301846119f0565b92915050565b6000604082019050611bdf60008301856119f0565b611bec60208301846119f0565b9392505050565b6000606082019050611c0860008301866119f0565b611c1560208301856119f0565b611c2260408301846119f0565b949350505050565b6000608082019050611c3f60008301876119f0565b611c4c60208301866119f0565b611c5960408301856119f0565b611c6660608301846119f0565b95945050505050565b60006101a082019050611c8560008301896119f0565b611c9260208301886119f0565b611c9f60408301876119f0565b611cac60608301866119f0565b611cb96080830185611914565b611cc76101808301846119f0565b979650505050505050565b6000819050919050565b6000602082019050919050565b600082825260208201905092915050565b600082825260208201905092915050565b6000611d1a602084018461152f565b905092915050565b6000611d2d82611e6c565b9150611d3883611e6c565b9250827fffffffffffffffffffffffffffffffffffffffffffffffffffffffffffffffff03821115611d6d57611d6c611ec0565b5b828201905092915050565b6000611d8382611e6c565b9150611d8e83611e6c565b9250817fffffffffffffffffffffffffffffffffffffffffffffffffffffffffffffffff0483118215151615611dc757611dc6611ec0565b5b828202905092915050565b6000611ddd82611e6c565b9150611de883611e6c565b925082821015611dfb57611dfa611ec0565b5b828203905092915050565b6000611e1182611e76565b9150611e1c83611e76565b925082821015611e2f57611e2e611ec0565b5b828203905092915050565b6000611e4582611e4c565b9050919050565b600073ffffffffffffffffffffffffffffffffffffffff82169050919050565b6000819050919050565b600060ff82169050919050565b6000611e8e82611e95565b9050919050565b6000611ea082611e4c565b9050919050565b82818337600083830152505050565b6000819050919050565b7f4e487b7100000000000000000000000000000000000000000000000000000000600052601160045260246000fd5b611ef881611e3a565b8114611f0357600080fd5b50565b611f0f81611e6c565b8114611f1a57600080fd5b50565b611f2681611e76565b8114611f3157600080fd5b5056fea2646970667358221220dc24ff5ab2aff9062d34952e3ce48d7d8a2b19dab304a30b8b891fdca635a98964736f6c63430008040033",
  "linkReferences": {
    "@zk-kit/incremental-merkle-tree.sol/IncrementalBinaryTree.sol": {
      "IncrementalBinaryTree": [
        {
          "length": 20,
          "start": 4098
        },
        {
          "length": 20,
          "start": 4393
        },
        {
          "length": 20,
          "start": 4738
        },
        {
          "length": 20,
          "start": 4994
        }
      ]
    }
  },
  "deployedLinkReferences": {
    "@zk-kit/incremental-merkle-tree.sol/IncrementalBinaryTree.sol": {
      "IncrementalBinaryTree": [
        {
          "length": 20,
          "start": 3790
        },
        {
          "length": 20,
          "start": 4085
        },
        {
          "length": 20,
          "start": 4430
        },
        {
          "length": 20,
          "start": 4686
        }
      ]
    }
  }
}